13:42:28.814576 IP 192.168.1.4.59969 > 101.226.90.58.https: Flags [S], seq 2912050752, win 65535, options [mss 1460,nop,wscale 5,nop,nop,TS val 410120386 ecr 0,sackOK,eol], length 0
	0x0000:  f49f f313 b1e8 d0a6 37ed 4849 0800 4500  ........7.HI..E.
	0x0010:  0040 ec4e 4000 4006 cca0 c0a8 0104 65e2  .@.N@.@.......e.
	0x0020:  5a3a ea41 01bb ad92 5e40 0000 0000 b002  Z:.A....^@......
	0x0030:  ffff b430 0000 0204 05b4 0103 0305 0101  ...0............
	0x0040:  080a 1871 f0c2 0000 0000 0402 0000       ...q..........
13:42:28.869746 IP 101.226.90.58.https > 192.168.1.4.59969: Flags [S.], seq 3615796938, ack 2912050753, win 5712, options [mss 1412,sackOK,TS val 594007457 ecr 410120386,nop,wscale 7], length 0
	0x0000:  d0a6 37ed 4849 f49f f313 b1e8 0800 4500  ..7.HI........E.
	0x0010:  003c 0000 4000 3506 c3f3 65e2 5a3a c0a8  .<..@.5...e.Z:..
	0x0020:  0104 01bb ea41 d784 aeca ad92 5e41 a012  .....A......^A..
	0x0030:  1650 2faa 0000 0204 0584 0402 080a 2367  .P/...........#g
	0x0040:  d5a1 1871 f0c2 0103 0307                 ...q......
13:42:28.869797 IP 192.168.1.4.59969 > 101.226.90.58.https: Flags [.], ack 1, win 4112, options [nop,nop,TS val 410120441 ecr 594007457], length 0
	0x0000:  f49f f313 b1e8 d0a6 37ed 4849 0800 4500  ........7.HI..E.
	0x0010:  0034 53e1 4000 4006 651a c0a8 0104 65e2  .4S.@.@.e.....e.
	0x0020:  5a3a ea41 01bb ad92 5e41 d784 aecb 8010  Z:.A....^A......
	0x0030:  1010 644f 0000 0101 080a 1871 f0f9 2367  ..dO.......q..#g
	0x0040:  d5a1                                     ..
13:42:28.870861 IP 192.168.1.4.59969 > 101.226.90.58.https: Flags [P.], seq 1:149, ack 1, win 4112, options [nop,nop,TS val 410120442 ecr 594007457], length 148
	0x0000:  f49f f313 b1e8 d0a6 37ed 4849 0800 4500  ........7.HI..E.
	0x0010:  00c8 57ac 4000 4006 60bb c0a8 0104 65e2  ..W.@.@.`.....e.
	0x0020:  5a3a ea41 01bb ad92 5e41 d784 aecb 8018  Z:.A....^A......
	0x0030:  1010 bef1 0000 0101 080a 1871 f0fa 2367  ...........q..#g
	0x0040:  d5a1 1603 0100 8f01 0000 8b03 0315 b3a6  ................
	0x0050:  7556 b267 5a50 e195 3ea7 18bc 1612 f2c0  uV.gZP..>.......
	0x0060:  75af ff9c b2b2 5bec e66d f568 3300 001a  u.....[..m.h3...
	0x0070:  c02f c02b c011 c007 c013 c009 c014 c00a  ./.+............
	0x0080:  0005 002f 0035 c012 000a 0100 0048 0000  .../.5.......H..
	0x0090:  0016 0014 0000 1161 7069 2e77 6569 7869  .......api.weixi
	0x00a0:  6e2e 7171 2e63 6f6d 0005 0005 0100 0000  n.qq.com........
	0x00b0:  0000 0a00 0800 0600 1700 1800 1900 0b00  ................
	0x00c0:  0201 0000 0d00 0a00 0804 0104 0302 0102  ................
	0x00d0:  03ff 0100 0100                           ......
13:42:28.924701 IP 101.226.90.58.https > 192.168.1.4.59969: Flags [.], ack 149, win 53, options [nop,nop,TS val 594007471 ecr 410120442], length 0
	0x0000:  d0a6 37ed 4849 f49f f313 b1e8 0800 4500  ..7.HI........E.
	0x0010:  0034 7b65 4000 3506 4896 65e2 5a3a c0a8  .4{e@.5.H.e.Z:..
	0x0020:  0104 01bb ea41 d784 aecb ad92 5ed5 8010  .....A......^...
	0x0030:  0035 7387 0000 0101 080a 2367 d5af 1871  .5s.......#g...q
	0x0040:  f0fa                                     ..
13:42:28.929243 IP 101.226.90.58.https > 192.168.1.4.59969: Flags [.], seq 1:1401, ack 149, win 53, options [nop,nop,TS val 594007471 ecr 410120442], length 1400
	0x0000:  d0a6 37ed 4849 f49f f313 b1e8 0800 4500  ..7.HI........E.
	0x0010:  05ac 7b66 4000 3506 431d 65e2 5a3a c0a8  ..{f@.5.C.e.Z:..
	0x0020:  0104 01bb ea41 d784 aecb ad92 5ed5 8010  .....A......^...
	0x0030:  0035 af70 0000 0101 080a 2367 d5af 1871  .5.p......#g...q
	0x0040:  f0fa 1603 0300 5902 0000 5503 0337 a2b2  ......Y...U..7..
	0x0050:  97bf 3bcb 1a7d 07c0 be8b ffdb 457a 2565  ..;..}......Ez%e
	0x0060:  d21a b382 0b1d 2fbb 588a 634b 7520 9cc1  ....../.X.cKu...
	0x0070:  58f9 e70a 65d0 75bb c022 c328 730a 47ad  X...e.u..".(s.G.
	0x0080:  d2aa 96fe 760f c59a 9d18 f6dd 3f51 c014  ....v.......?Q..
	0x0090:  0000 0dff 0100 0100 000b 0004 0300 0102  ................
	0x00a0:  1603 030d d50b 000d d100 0dce 0005 e730  ...............0
	0x00b0:  8205 e330 8204 cba0 0302 0102 0210 1f6b  ...0...........k
	0x00c0:  9976 d6ac 2267 3ea6 ade4 d939 ba4c 300d  .v.."g>....9.L0.
	0x00d0:  0609 2a86 4886 f70d 0101 0505 0030 4431  ..*.H........0D1
	0x00e0:  0b30 0906 0355 0406 1302 5553 3116 3014  .0...U....US1.0.
	0x00f0:  0603 5504 0a13 0d47 656f 5472 7573 7420  ..U....GeoTrust.
	0x0100:  496e 632e 311d 301b 0603 5504 0313 1447  Inc.1.0...U....G
	0x0110:  656f 5472 7573 7420 5353 4c20 4341 202d  eoTrust.SSL.CA.-
	0x0120:  2047 3230 1e17 0d31 3530 3532 3630 3030  .G20...150526000
	0x0130:  3030 305a 170d 3135 3132 3239 3233 3539  000Z..1512292359
	0x0140:  3539 5a30 8199 310b 3009 0603 5504 0613  59Z0..1.0...U...
	0x0150:  0243 4e31 1230 1006 0355 0408 1309 4775  .CN1.0...U....Gu
	0x0160:  616e 6764 6f6e 6731 1130 0f06 0355 0407  angdong1.0...U..
	0x0170:  1408 5368 656e 7a68 656e 313a 3038 0603  ..Shenzhen1:08..
	0x0180:  5504 0a14 3153 6865 6e7a 6865 6e20 5465  U...1Shenzhen.Te
	0x0190:  6e63 656e 7420 436f 6d70 7574 6572 2053  ncent.Computer.S
	0x01a0:  7973 7465 6d73 2043 6f6d 7061 6e79 204c  ystems.Company.L
	0x01b0:  696d 6974 6564 310c 300a 0603 5504 0b14  imited1.0...U...
	0x01c0:  0352 2644 3119 3017 0603 5504 0314 106d  .R&D1.0...U....m
	0x01d0:  702e 7765 6978 696e 2e71 712e 636f 6d30  p.weixin.qq.com0
	0x01e0:  8201 2230 0d06 092a 8648 86f7 0d01 0101  .."0...*.H......
	0x01f0:  0500 0382 010f 0030 8201 0a02 8201 0100  .......0........
	0x0200:  bcd4 bd89 4b75 6da4 7fdc ae17 8939 d7e2  ....Kum......9..
	0x0210:  679f c475 7947 6fa3 789f 13af b516 4191  g..uyGo.x.....A.
	0x0220:  4be3 6864 3175 aeea 6e43 2e76 34b4 06d8  K.hd1u..nC.v4...
	0x0230:  f423 7c9f 07b2 280c 5714 ac71 1adb c6a8  .#|...(.W..q....
	0x0240:  2930 ea8b 22f8 7ec6 0abe ac87 ad3d 63cb  )0..".~......=c.
	0x0250:  2f41 6ea9 7f0d 46ca 64b1 5b93 8ecf 2f10  /An...F.d.[.../.
	0x0260:  5d6b 885f c3ba e16a d190 90cc 4f98 052f  ]k._...j....O../
	0x0270:  a2e0 2779 ae01 c21b cdc5 259e a451 d410  ..'y......%..Q..
	0x0280:  fb29 7c93 83ea 6b64 020d f4b1 b945 1df7  .)|...kd.....E..
	0x0290:  63d0 25f7 431b 141b 64b7 5706 8741 79c2  c.%.C...d.W..Ay.
	0x02a0:  2a48 12c1 aef5 76bf 9261 3112 7f21 8129  *H....v..a1..!.)
	0x02b0:  1332 9e51 acad e2b6 56e1 8582 d00d c587  .2.Q....V.......
	0x02c0:  cf2b 3ab4 8267 8fa4 83e3 dd3b 9aa5 d939  .+:..g.....;...9
	0x02d0:  ad7a 1a04 a6d0 9f18 0697 61c4 bf93 3fe2  .z........a...?.
	0x02e0:  a32c 19c3 772d 174d b251 013c a2a8 c7ea  .,..w-.M.Q.<....
	0x02f0:  68f2 4d3d 4062 9576 9953 2cae 2c9d 7e31  h.M=@b.v.S,.,.~1
	0x0300:  0203 0100 01a3 8202 7930 8202 7530 81f1  ........y0..u0..
	0x0310:  0603 551d 1104 81e9 3081 e682 1568 6b2e  ..U.....0....hk.
	0x0320:  6f70 656e 2e77 6569 7869 6e2e 7171 2e63  open.weixin.qq.c
	0x0330:  6f6d 8217 6c6f 6e67 2e6f 7065 6e2e 7765  om..long.open.we
	0x0340:  6978 696e 2e71 712e 636f 6d82 126f 7065  ixin.qq.com..ope
	0x0350:  6e2e 7765 6978 696e 2e71 712e 636f 6d82  n.weixin.qq.com.
	0x0360:  1267 616d 652e 7765 6978 696e 2e71 712e  .game.weixin.qq.
	0x0370:  636f 6d82 136d 702e 7765 6978 696e 6272  com..mp.weixinbr
	0x0380:  6964 6765 2e63 6f6d 8215 737a 2e6f 7065  idge.com..sz.ope
	0x0390:  6e2e 7765 6978 696e 2e71 712e 636f 6d82  n.weixin.qq.com.
	0x03a0:  0f61 2e77 6569 7869 6e2e 7171 2e63 6f6d  .a.weixin.qq.com
	0x03b0:  8211 6170 692e 7765 6978 696e 2e71 712e  ..api.weixin.qq.
	0x03c0:  636f 6d82 1468 6b2e 6170 692e 7765 6978  com..hk.api.weix
	0x03d0:  696e 2e71 712e 636f 6d82 1473 7a2e 6170  in.qq.com..sz.ap
	0x03e0:  692e 7765 6978 696e 2e71 712e 636f 6d82  i.weixin.qq.com.
	0x03f0:  106d 702e 7765 6978 696e 2e71 712e 636f  .mp.weixin.qq.co
	0x0400:  6d30 0906 0355 1d13 0402 3000 300e 0603  m0...U....0.0...
	0x0410:  551d 0f01 01ff 0404 0302 05a0 302b 0603  U...........0+..
	0x0420:  551d 1f04 2430 2230 20a0 1ea0 1c86 1a68  U...$0"0.......h
	0x0430:  7474 703a 2f2f 6762 2e73 796d 6362 2e63  ttp://gb.symcb.c
	0x0440:  6f6d 2f67 622e 6372 6c30 819d 0603 551d  om/gb.crl0....U.
	0x0450:  2004 8195 3081 9230 818f 0606 6781 0c01  ....0..0....g...
	0x0460:  0202 3081 8430 3f06 082b 0601 0505 0702  ..0..0?..+......
	0x0470:  0116 3368 7474 7073 3a2f 2f77 7777 2e67  ..3https://www.g
	0x0480:  656f 7472 7573 742e 636f 6d2f 7265 736f  eotrust.com/reso
	0x0490:  7572 6365 732f 7265 706f 7369 746f 7279  urces/repository
	0x04a0:  2f6c 6567 616c 3041 0608 2b06 0105 0507  /legal0A..+.....
	0x04b0:  0202 3035 0c33 6874 7470 733a 2f2f 7777  ..05.3https://ww
	0x04c0:  772e 6765 6f74 7275 7374 2e63 6f6d 2f72  w.geotrust.com/r
	0x04d0:  6573 6f75 7263 6573 2f72 6570 6f73 6974  esources/reposit
	0x04e0:  6f72 792f 6c65 6761 6c30 1d06 0355 1d25  ory/legal0...U.%
	0x04f0:  0416 3014 0608 2b06 0105 0507 0301 0608  ..0...+.........
	0x0500:  2b06 0105 0507 0302 301f 0603 551d 2304  +.......0...U.#.
	0x0510:  1830 1680 1411 4ad0 7339 d55b 6908 5cba  .0....J.s9.[i.\.
	0x0520:  3dbf 649a a88b 1c55 bc30 5706 082b 0601  =.d....U.0W..+..
	0x0530:  0505 0701 0104 4b30 4930 1f06 082b 0601  ......K0I0...+..
	0x0540:  0505 0730 0186 1368 7474 703a 2f2f 6762  ...0...http://gb
	0x0550:  2e73 796d 6364 2e63 6f6d 3026 0608 2b06  .symcd.com0&..+.
	0x0560:  0105 0507 3002 861a 6874 7470 3a2f 2f67  ....0...http://g
	0x0570:  622e 7379 6d63 622e 636f 6d2f 6762 2e63  b.symcb.com/gb.c
	0x0580:  7274 300d 0609 2a86 4886 f70d 0101 0505  rt0...*.H.......
	0x0590:  0003 8201 0100 b077 ac59 0796 c561 45e1  .......w.Y...aE.
	0x05a0:  7145 bcec 96bf 8091 76e2 de32 3284 3af9  qE......v..22.:.
	0x05b0:  17fe 0332 3866 ba22 cb51                 ...28f.".Q
13:42:28.930243 IP 101.226.90.58.https > 192.168.1.4.59969: Flags [.], seq 1401:2801, ack 149, win 53, options [nop,nop,TS val 594007471 ecr 410120442], length 1400
	0x0000:  d0a6 37ed 4849 f49f f313 b1e8 0800 4500  ..7.HI........E.
	0x0010:  05ac 7b67 4000 3506 431c 65e2 5a3a c0a8  ..{g@.5.C.e.Z:..
	0x0020:  0104 01bb ea41 d784 b443 ad92 5ed5 8010  .....A...C..^...
	0x0030:  0035 1e72 0000 0101 080a 2367 d5af 1871  .5.r......#g...q
	0x0040:  f0fa 21af 0020 fc87 5fe6 ccd0 9439 ea78  ..!....._....9.x
	0x0050:  d095 867d d2c6 b478 3d1f 7d50 bd7b 7a36  ...}...x=.}P.{z6
	0x0060:  78c1 f5f6 e876 59a0 13ae 337d 0cea 1cbd  x....vY...3}....
	0x0070:  6967 a879 6cba ba2c 85bb bb07 768f 675f  ig.yl..,....v.g_
	0x0080:  d16f c6e8 ee98 4276 c56a ac0a 14f5 af77  .o....Bv.j.....w
	0x0090:  eb10 97eb 2156 2a28 3804 c4ba 4a8d d225  ....!V*(8...J..%
	0x00a0:  9ee8 09d7 a9e5 62c1 c521 3989 a7db 61e1  ......b..!9...a.
	0x00b0:  6ae9 1dd7 4f15 053f 48b5 c870 8e28 5297  j...O..?H..p.(R.
	0x00c0:  cf34 b066 cf80 797e febc 4529 097d 28b2  .4.f..y~..E).}(.
	0x00d0:  72b5 bba1 c1fc dcc8 629b 964a dc69 6641  r.......b..J.ifA
	0x00e0:  66f8 6e9f 19ea 01ac d372 d118 d6e0 ea8c  f.n......r......
	0x00f0:  5999 6e55 9bc3 dc67 6d88 303a 5cda 5948  Y.nU...gm.0:\.YH
	0x0100:  cce9 df20 d653 1340 2946 7311 175e c9f4  .....S.@)Fs..^..
	0x0110:  07b6 d646 7ac5 c690 392a 2a12 809d 0004  ...Fz...9**.....
	0x0120:  5d30 8204 5930 8203 41a0 0302 0102 0203  ]0..Y0..A.......
	0x0130:  023a 6330 0d06 092a 8648 86f7 0d01 0105  .:c0...*.H......
	0x0140:  0500 3042 310b 3009 0603 5504 0613 0255  ..0B1.0...U....U
	0x0150:  5331 1630 1406 0355 040a 130d 4765 6f54  S1.0...U....GeoT
	0x0160:  7275 7374 2049 6e63 2e31 1b30 1906 0355  rust.Inc.1.0...U
	0x0170:  0403 1312 4765 6f54 7275 7374 2047 6c6f  ....GeoTrust.Glo
	0x0180:  6261 6c20 4341 301e 170d 3132 3038 3237  bal.CA0...120827
	0x0190:  3230 3430 3430 5a17 0d32 3230 3532 3032  204040Z..2205202
	0x01a0:  3034 3034 305a 3044 310b 3009 0603 5504  04040Z0D1.0...U.
	0x01b0:  0613 0255 5331 1630 1406 0355 040a 130d  ...US1.0...U....
	0x01c0:  4765 6f54 7275 7374 2049 6e63 2e31 1d30  GeoTrust.Inc.1.0
	0x01d0:  1b06 0355 0403 1314 4765 6f54 7275 7374  ...U....GeoTrust
	0x01e0:  2053 534c 2043 4120 2d20 4732 3082 0122  .SSL.CA.-.G20.."
	0x01f0:  300d 0609 2a86 4886 f70d 0101 0105 0003  0...*.H.........
	0x0200:  8201 0f00 3082 010a 0282 0101 00b9 27f9  ....0.........'.
	0x0210:  4fd8 f6b7 153f 8fcd ced6 8d1c 6bfd 7fda  O....?......k...
	0x0220:  5421 4e03 d8ca d072 5215 b8c9 825b 5879  T!N....rR....[Xy
	0x0230:  84ff 2472 6ff2 697f bc96 d99a 7ac3 3ea9  ..$ro.i.....z.>.
	0x0240:  cf50 2213 0e86 19db e849 ef8b e6d6 47f2  .P"......I....G.
	0x0250:  fd73 4508 ae8f ac5e b6f8 9e7c f710 ff92  .sE....^...|....
	0x0260:  4366 ef1c d4ee a146 8811 8949 797a 25ce  Cf.....F...Iyz%.
	0x0270:  4b6a f0d7 1c76 1a29 3cc9 e4fd 1e85 dce0  Kj...v.)<.......
	0x0280:  3165 0547 16ac 0a07 4b2e 705e 6b06 a76b  1e.G....K.p^k..k
	0x0290:  3a6c af05 12c4 b211 25d6 3e97 29f0 836c  :l......%.>.)..l
	0x02a0:  571c d8a5 efcc ecfd d612 f13f db40 b4ae  W..........?.@..
	0x02b0:  0f18 d3c5 af40 925d 075e 4efe 6217 3789  .....@.].^N.b.7.
	0x02c0:  e98b 7426 a2ed b80a e76c 155b 3590 72dd  ..t&.....l.[5.r.
	0x02d0:  d84d 21d4 4023 5c8f ee80 3116 ab68 55f4  .M!.@#\...1..hU.
	0x02e0:  0e3b 54e9 044d f0cc 4e81 5ee9 6f52 694e  .;T..M..N.^.oRiN
	0x02f0:  bea6 166d 42f5 51ff e00b 563c 984f 738f  ...mB.Q...V<.Os.
	0x0300:  0e6f 1a23 f1c9 c8d9 dfbc ec52 d702 0301  .o.#.......R....
	0x0310:  0001 a382 0154 3082 0150 301f 0603 551d  .....T0..P0...U.
	0x0320:  2304 1830 1680 14c0 7a98 688d 89fb ab05  #..0....z.h.....
	0x0330:  640c 117d aa7d 65b8 cacc 4e30 1d06 0355  d..}.}e...N0...U
	0x0340:  1d0e 0416 0414 114a d073 39d5 5b69 085c  .......J.s9.[i.\
	0x0350:  ba3d bf64 9aa8 8b1c 55bc 3012 0603 551d  .=.d....U.0...U.
	0x0360:  1301 01ff 0408 3006 0101 ff02 0100 300e  ......0.......0.
	0x0370:  0603 551d 0f01 01ff 0404 0302 0106 303a  ..U...........0:
	0x0380:  0603 551d 1f04 3330 3130 2fa0 2da0 2b86  ..U...3010/.-.+.
	0x0390:  2968 7474 703a 2f2f 6372 6c2e 6765 6f74  )http://crl.geot
	0x03a0:  7275 7374 2e63 6f6d 2f63 726c 732f 6774  rust.com/crls/gt
	0x03b0:  676c 6f62 616c 2e63 726c 3034 0608 2b06  global.crl04..+.
	0x03c0:  0105 0507 0101 0428 3026 3024 0608 2b06  .......(0&0$..+.
	0x03d0:  0105 0507 3001 8618 6874 7470 3a2f 2f6f  ....0...http://o
	0x03e0:  6373 702e 6765 6f74 7275 7374 2e63 6f6d  csp.geotrust.com
	0x03f0:  304c 0603 551d 2004 4530 4330 4106 0a60  0L..U...E0C0A..`
	0x0400:  8648 0186 f845 0107 3630 3330 3106 082b  .H...E..60301..+
	0x0410:  0601 0505 0702 0116 2568 7474 703a 2f2f  ........%http://
	0x0420:  7777 772e 6765 6f74 7275 7374 2e63 6f6d  www.geotrust.com
	0x0430:  2f72 6573 6f75 7263 6573 2f63 7073 302a  /resources/cps0*
	0x0440:  0603 551d 1104 2330 21a4 1f30 1d31 1b30  ..U...#0!..0.1.0
	0x0450:  1906 0355 0403 1312 5665 7269 5369 676e  ...U....VeriSign
	0x0460:  4d50 4b49 2d32 2d32 3534 300d 0609 2a86  MPKI-2-2540...*.
	0x0470:  4886 f70d 0101 0505 0003 8201 0100 3ce5  H.............<.
	0x0480:  3d5a 1ba2 372a e346 cf36 9618 3c7b f184  =Z..7*.F.6..<{..
	0x0490:  c557 8677 409d 35f0 12f0 7818 fb22 a4de  .W.w@.5...x.."..
	0x04a0:  984b 7881 e64d 86e3 910f 42e3 b9dc a0d6  .Kx..M....B.....
	0x04b0:  ffa9 f8b1 7997 99d1 c36c 42a5 9294 e05d  ....y....lB....]
	0x04c0:  0c33 1825 c92b 9553 e0e5 a90c 7d47 fe7f  .3.%.+.S....}G..
	0x04d0:  5131 445e f72a 1e35 a294 32f7 c9ee c0b6  Q1D^.*.5..2.....
	0x04e0:  c69a acde 9921 6a23 a038 64ee a3c4 8873  .....!j#.8d....s
	0x04f0:  323b 50ce bfad d375 1ea6 f4e9 f942 6b60  2;P....u.....Bk`
	0x0500:  b2dd 45fd 5d57 08ce 2d50 e612 3216 138a  ..E.]W..-P..2...
	0x0510:  f294 a29b 47a8 867f d998 e5f7 e576 7464  ....G........vtd
	0x0520:  d891 bc84 1628 d825 4430 7e82 d8ac b1e4  .....(.%D0~.....
	0x0530:  c0e4 156c dbb6 2427 022a 0112 85ba 3188  ...l..$'.*....1.
	0x0540:  5847 74e3 b8d2 64a6 c332 592e 294b 45f1  XGt...d..2Y.)KE.
	0x0550:  5b89 492e 829a c618 1544 d02e 6401 1568  [.I......D..d..h
	0x0560:  38f9 f6f9 6603 0c55 1b9d bf00 40ae f048  8...f..U....@..H
	0x0570:  274c e080 5e2d b92a 157a bc66 f835 0003  'L..^-.*.z.f.5..
	0x0580:  8130 8203 7d30 8202 e6a0 0302 0102 0203  .0..}0..........
	0x0590:  12bb e630 0d06 092a 8648 86f7 0d01 0105  ...0...*.H......
	0x05a0:  0500 304e 310b 3009 0603 5504 0613 0255  ..0N1.0...U....U
	0x05b0:  5331 1030 0e06 0355 040a                 S1.0...U..
13:42:28.930312 IP 192.168.1.4.59969 > 101.226.90.58.https: Flags [.], ack 2801, win 4052, options [nop,nop,TS val 410120499 ecr 594007471], length 0
	0x0000:  f49f f313 b1e8 d0a6 37ed 4849 0800 4500  ........7.HI..E.
	0x0010:  0034 a0be 4000 4006 183d c0a8 0104 65e2  .4..@.@..=....e.
	0x0020:  5a3a ea41 01bb ad92 5ed5 d784 b9bb 8010  Z:.A....^.......
	0x0030:  0fd4 58bf 0000 0101 080a 1871 f133 2367  ..X........q.3#g
	0x0040:  d5af                                     ..
13:42:28.931499 IP 101.226.90.58.https > 192.168.1.4.59969: Flags [P.], seq 2801:3988, ack 149, win 53, options [nop,nop,TS val 594007471 ecr 410120442], length 1187
	0x0000:  d0a6 37ed 4849 f49f f313 b1e8 0800 4500  ..7.HI........E.
	0x0010:  04d7 7b68 4000 3506 43f0 65e2 5a3a c0a8  ..{h@.5.C.e.Z:..
	0x0020:  0104 01bb ea41 d784 b9bb ad92 5ed5 8018  .....A......^...
	0x0030:  0035 31d1 0000 0101 080a 2367 d5af 1871  .51.......#g...q
	0x0040:  f0fa 1307 4571 7569 6661 7831 2d30 2b06  ....Equifax1-0+.
	0x0050:  0355 040b 1324 4571 7569 6661 7820 5365  .U...$Equifax.Se
	0x0060:  6375 7265 2043 6572 7469 6669 6361 7465  cure.Certificate
	0x0070:  2041 7574 686f 7269 7479 301e 170d 3032  .Authority0...02
	0x0080:  3035 3231 3034 3030 3030 5a17 0d31 3830  0521040000Z..180
	0x0090:  3832 3130 3430 3030 305a 3042 310b 3009  821040000Z0B1.0.
	0x00a0:  0603 5504 0613 0255 5331 1630 1406 0355  ..U....US1.0...U
	0x00b0:  040a 130d 4765 6f54 7275 7374 2049 6e63  ....GeoTrust.Inc
	0x00c0:  2e31 1b30 1906 0355 0403 1312 4765 6f54  .1.0...U....GeoT
	0x00d0:  7275 7374 2047 6c6f 6261 6c20 4341 3082  rust.Global.CA0.
	0x00e0:  0122 300d 0609 2a86 4886 f70d 0101 0105  ."0...*.H.......
	0x00f0:  0003 8201 0f00 3082 010a 0282 0101 00da  ......0.........
	0x0100:  cc18 6330 fdf4 1723 1a56 7e5b df3c 6c38  ..c0...#.V~[.<l8
	0x0110:  e471 b778 91d4 bca1 d84c f8a8 43b6 03e9  .q.x.....L..C...
	0x0120:  4d21 0708 88da 582f 6639 29bd 0578 8b9d  M!....X/f9)..x..
	0x0130:  38e8 05b7 6a7e 71a4 e6c4 60a6 b0ef 80e4  8...j~q...`.....
	0x0140:  8928 0f9e 25d6 ed83 f3ad a691 c798 c942  .(..%..........B
	0x0150:  1835 149d ad98 4692 2e4f caf1 8743 c116  .5....F..O...C..
	0x0160:  9557 2d50 ef89 2d80 7a57 adf2 ee5f 6bd2  .W-P..-.zW..._k.
	0x0170:  008d b914 f814 1535 d9c0 46a3 7b72 c891  .......5..F.{r..
	0x0180:  bfc9 552b cdd0 973e 9c26 64cc dfce 8319  ..U+...>.&d.....
	0x0190:  71ca 4ee6 d4d5 7ba9 19cd 55de c8ec d25e  q.N...{...U....^
	0x01a0:  3853 e55c 4f8c 2dfe 5023 36fc 66e6 cb8e  8S.\O.-.P#6.f...
	0x01b0:  a439 1900 b795 0239 910b 0efe 382e d11d  .9.....9....8...
	0x01c0:  059a f64d 3e6f 0f07 1daf 2c1e 8f60 39e2  ...M>o....,..`9.
	0x01d0:  fa36 5313 39d4 5e26 2bdb 3da8 14bd 32eb  .6S.9.^&+.=...2.
	0x01e0:  1803 2852 0471 e5ab 333d e138 bb07 3684  ..(R.q..3=.8..6.
	0x01f0:  629c 79ea 1630 f45f c02b e871 6be4 f902  b.y..0._.+.qk...
	0x0200:  0301 0001 a381 f030 81ed 301f 0603 551d  .......0..0...U.
	0x0210:  2304 1830 1680 1448 e668 f92b d2b2 95d7  #..0...H.h.+....
	0x0220:  47d8 2320 104f 3398 909f d430 1d06 0355  G.#..O3....0...U
	0x0230:  1d0e 0416 0414 c07a 9868 8d89 fbab 0564  .......z.h.....d
	0x0240:  0c11 7daa 7d65 b8ca cc4e 300f 0603 551d  ..}.}e...N0...U.
	0x0250:  1301 01ff 0405 3003 0101 ff30 0e06 0355  ......0....0...U
	0x0260:  1d0f 0101 ff04 0403 0201 0630 3a06 0355  ...........0:..U
	0x0270:  1d1f 0433 3031 302f a02d a02b 8629 6874  ...3010/.-.+.)ht
	0x0280:  7470 3a2f 2f63 726c 2e67 656f 7472 7573  tp://crl.geotrus
	0x0290:  742e 636f 6d2f 6372 6c73 2f73 6563 7572  t.com/crls/secur
	0x02a0:  6563 612e 6372 6c30 4e06 0355 1d20 0447  eca.crl0N..U...G
	0x02b0:  3045 3043 0604 551d 2000 303b 3039 0608  0E0C..U...0;09..
	0x02c0:  2b06 0105 0507 0201 162d 6874 7470 733a  +........-https:
	0x02d0:  2f2f 7777 772e 6765 6f74 7275 7374 2e63  //www.geotrust.c
	0x02e0:  6f6d 2f72 6573 6f75 7263 6573 2f72 6570  om/resources/rep
	0x02f0:  6f73 6974 6f72 7930 0d06 092a 8648 86f7  ository0...*.H..
	0x0300:  0d01 0105 0500 0381 8100 76e1 126e 4e4b  ..........v..nNK
	0x0310:  1612 8630 06b2 8108 cff0 08c7 c771 7e66  ...0.........q~f
	0x0320:  eec2 edd4 3b1f fff0 f0c8 4ed6 4338 b0b9  ....;.....N.C8..
	0x0330:  307d 18d0 5583 a26a cb36 119c e848 66a3  0}..U..j.6...Hf.
	0x0340:  6d7f b813 d447 fe8b 5a5c 73fc aed9 1b32  m....G..Z\s....2
	0x0350:  1938 ab97 3414 aa96 d2eb a31c 1408 49b6  .8..4.........I.
	0x0360:  bbe5 91ef 8336 eb1d 566f cada bc73 6390  .....6..Vo...sc.
	0x0370:  e47f 7b3e 22cb 3d07 ed5f 3874 9ce3 0350  ..{>".=.._8t...P
	0x0380:  4ea1 af98 ee61 f284 3f12 1603 0301 4d0c  N....a..?.....M.
	0x0390:  0001 4903 0017 4104 18a2 564a bd3e cbd6  ..I...A...VJ.>..
	0x03a0:  bb77 f88f 768e 2f22 41fa 5a96 d80e af51  .w..v./"A.Z....Q
	0x03b0:  f011 bcaa 5365 a6b7 e067 0aae fadc 3e04  ....Se...g....>.
	0x03c0:  6610 581d 3f83 7e0f 1b4f 9855 ec6c 2c37  f.X.?.~..O.U.l,7
	0x03d0:  fc39 899d becf 3446 0401 0100 3a42 1bd6  .9....4F....:B..
	0x03e0:  1d4c e2b1 fb48 44d4 f101 6b02 b39f e9fd  .L...HD...k.....
	0x03f0:  3003 35d8 15c8 f347 b694 1c51 8ead 4354  0.5....G...Q..CT
	0x0400:  da99 2caf 15eb 2372 6267 5c95 4b9c 6d66  ..,...#rbg\.K.mf
	0x0410:  12fb e148 f164 dba7 5261 9196 eb9b 6cb3  ...H.d..Ra....l.
	0x0420:  45d7 56eb b36d b187 7eaf b502 f760 c118  E.V..m..~....`..
	0x0430:  3813 b88e 5a0c f7ea f520 a045 bfcc d18c  8...Z......E....
	0x0440:  c379 322a 9ee4 f377 960c 0612 9b8d 8e78  .y2*...w.......x
	0x0450:  5d18 9ec2 abd9 358e 26ba af0a c9b7 b867  ].....5.&......g
	0x0460:  bef5 4e56 ad22 dd4a 8158 93be 80df ed9b  ..NV.".J.X......
	0x0470:  562c 1d37 fe19 7d5b 414c 9265 54ae 4282  V,.7..}[AL.eT.B.
	0x0480:  0893 eaa9 60ef bb4a 7f6d aae7 43c0 43ec  ....`..J.m..C.C.
	0x0490:  0738 cc08 5ddb c7f1 636b cad3 2778 b789  .8..]...ck..'x..
	0x04a0:  6cd4 13ba 249a 343b 70a9 03c2 da63 de8d  l...$.4;p....c..
	0x04b0:  f2f2 20e9 7ccc 8482 1d9c 26ca 21fc f059  ....|.....&.!..Y
	0x04c0:  c1fe fe21 af69 c289 787f e15a 0626 fc31  ...!.i..x..Z.&.1
	0x04d0:  2779 73d5 e93e 8e52 88fa cb14 1603 0300  'ys..>.R........
	0x04e0:  040e 0000 00                             .....
13:42:28.931531 IP 192.168.1.4.59969 > 101.226.90.58.https: Flags [.], ack 3988, win 4058, options [nop,nop,TS val 410120501 ecr 594007471], length 0
	0x0000:  f49f f313 b1e8 d0a6 37ed 4849 0800 4500  ........7.HI..E.
	0x0010:  0034 43da 4000 4006 7521 c0a8 0104 65e2  .4C.@.@.u!....e.
	0x0020:  5a3a ea41 01bb ad92 5ed5 d784 be5e 8010  Z:.A....^....^..
	0x0030:  0fda 5414 0000 0101 080a 1871 f135 2367  ..T........q.5#g
	0x0040:  d5af                                     ..
13:42:29.002005 IP 192.168.1.4.59969 > 101.226.90.58.https: Flags [P.], seq 149:224, ack 3988, win 4096, options [nop,nop,TS val 410120571 ecr 594007471], length 75
	0x0000:  f49f f313 b1e8 d0a6 37ed 4849 0800 4500  ........7.HI..E.
	0x0010:  007f ffa9 4000 4006 b906 c0a8 0104 65e2  ....@.@.......e.
	0x0020:  5a3a ea41 01bb ad92 5ed5 d784 be5e 8018  Z:.A....^....^..
	0x0030:  1000 7e6e 0000 0101 080a 1871 f17b 2367  ..~n.......q.{#g
	0x0040:  d5af 1603 0300 4610 0000 4241 04bb 7af1  ......F...BA..z.
	0x0050:  a9a0 a528 4360 a732 4912 92f8 e9be 84c2  ...(C`.2I.......
	0x0060:  75d5 f7fb 8da8 bace 7636 0bbb 1e28 79e6  u.......v6...(y.
	0x0070:  d0ae c05e e1c7 c95a 32dd bc16 4546 d231  ...^...Z2...EF.1
	0x0080:  8a1c 20d7 fae9 535f 5008 3dd2 96         ......S_P.=..
13:42:29.002074 IP 192.168.1.4.59969 > 101.226.90.58.https: Flags [P.], seq 224:230, ack 3988, win 4096, options [nop,nop,TS val 410120571 ecr 594007471], length 6
	0x0000:  f49f f313 b1e8 d0a6 37ed 4849 0800 4500  ........7.HI..E.
	0x0010:  003a 2456 4000 4006 949f c0a8 0104 65e2  .:$V@.@.......e.
	0x0020:  5a3a ea41 01bb ad92 5f20 d784 be5e 8018  Z:.A...._....^..
	0x0030:  1000 3b4b 0000 0101 080a 1871 f17b 2367  ..;K.......q.{#g
	0x0040:  d5af 1403 0300 0101                      ........
13:42:29.002096 IP 192.168.1.4.59969 > 101.226.90.58.https: Flags [P.], seq 230:299, ack 3988, win 4096, options [nop,nop,TS val 410120571 ecr 594007471], length 69
	0x0000:  f49f f313 b1e8 d0a6 37ed 4849 0800 4500  ........7.HI..E.
	0x0010:  0079 c4f5 4000 4006 f3c0 c0a8 0104 65e2  .y..@.@.......e.
	0x0020:  5a3a ea41 01bb ad92 5f26 d784 be5e 8018  Z:.A...._&...^..
	0x0030:  1000 f106 0000 0101 080a 1871 f17b 2367  ...........q.{#g
	0x0040:  d5af 1603 0300 405c 6a55 58cd 7101 4326  ......@\jUX.q.C&
	0x0050:  a71b 5529 56a6 982f dcb8 bde7 cf0e 0bc3  ..U)V../........
	0x0060:  4012 57d5 9946 b6fd d3d8 3c26 e886 f5af  @.W..F....<&....
	0x0070:  b365 bd88 b3d0 f663 7fab be57 1ded 1f6b  .e.....c...W...k
	0x0080:  19a2 5fa5 4da3 fd                        .._.M..
13:42:29.057015 IP 101.226.90.58.https > 192.168.1.4.59969: Flags [.], ack 230, win 53, options [nop,nop,TS val 594007504 ecr 410120571], length 0
	0x0000:  d0a6 37ed 4849 f49f f313 b1e8 0800 4500  ..7.HI........E.
	0x0010:  0034 7b69 4000 3506 4892 65e2 5a3a c0a8  .4{i@.5.H.e.Z:..
	0x0020:  0104 01bb ea41 d784 be5e ad92 5f26 8010  .....A...^.._&..
	0x0030:  0035 6301 0000 0101 080a 2367 d5d0 1871  .5c.......#g...q
	0x0040:  f17b                                     .{
13:42:29.059122 IP 101.226.90.58.https > 192.168.1.4.59969: Flags [P.], seq 3988:4063, ack 299, win 53, options [nop,nop,TS val 594007504 ecr 410120571], length 75
	0x0000:  d0a6 37ed 4849 f49f f313 b1e8 0800 4500  ..7.HI........E.
	0x0010:  007f 7b6a 4000 3506 4846 65e2 5a3a c0a8  ..{j@.5.HFe.Z:..
	0x0020:  0104 01bb ea41 d784 be5e ad92 5f6b 8018  .....A...^.._k..
	0x0030:  0035 dcc2 0000 0101 080a 2367 d5d0 1871  .5........#g...q
	0x0040:  f17b 1403 0300 0101 1603 0300 4077 1258  .{..........@w.X
	0x0050:  fd32 9244 9c91 01f2 9a12 3a3b 6a30 8428  .2.D......:;j0.(
	0x0060:  c2bb 4785 4f53 8099 9ad2 f56b 4d04 cbb7  ..G.OS.....kM...
	0x0070:  f76f eb79 c48e e7c5 3bc8 cdc6 f4e1 7f39  .o.y....;......9
	0x0080:  b55d 65ac 429e 1291 194f 2393 d4         .]e.B....O#..
13:42:29.059164 IP 192.168.1.4.59969 > 101.226.90.58.https: Flags [.], ack 4063, win 4093, options [nop,nop,TS val 410120628 ecr 594007504], length 0
	0x0000:  f49f f313 b1e8 d0a6 37ed 4849 0800 4500  ........7.HI..E.
	0x0010:  0034 8a44 4000 4006 2eb7 c0a8 0104 65e2  .4.D@.@.......e.
	0x0020:  5a3a ea41 01bb ad92 5f6b d784 bea9 8010  Z:.A...._k......
	0x0030:  0ffd 5270 0000 0101 080a 1871 f1b4 2367  ..Rp.......q..#g
	0x0040:  d5d0                                     ..
13:42:29.059603 IP 192.168.1.4.59969 > 101.226.90.58.https: Flags [P.], seq 299:672, ack 4063, win 4096, options [nop,nop,TS val 410120628 ecr 594007504], length 373
	0x0000:  f49f f313 b1e8 d0a6 37ed 4849 0800 4500  ........7.HI..E.
	0x0010:  01a9 d766 4000 4006 e01f c0a8 0104 65e2  ...f@.@.......e.
	0x0020:  5a3a ea41 01bb ad92 5f6b d784 bea9 8018  Z:.A...._k......
	0x0030:  1000 e060 0000 0101 080a 1871 f1b4 2367  ...`.......q..#g
	0x0040:  d5d0 1703 0301 705c e514 1aad 046a cd12  ......p\.....j..
	0x0050:  3444 1b06 3e26 7594 181a 9376 8402 cd44  4D..>&u....v...D
	0x0060:  7fe1 4dc0 9887 6635 83a1 326f 0035 5407  ..M...f5..2o.5T.
	0x0070:  5dca db19 0b2b 884c 29ba 4a90 dc93 ef5b  ]....+.L).J....[
	0x0080:  baa3 e799 d79e 39e3 bd08 40ef f1d6 cd65  ......9...@....e
	0x0090:  0fd1 715e 1923 1664 5b66 6ea5 02ed e00e  ..q^.#.d[fn.....
	0x00a0:  3b55 fa72 a5fd b075 ab40 ba4f 24a9 c079  ;U.r...u.@.O$..y
	0x00b0:  665a 4a9f 9e0a 242b 4fa6 c20e 66ee 7f17  fZJ...$+O...f...
	0x00c0:  5d46 5bbd 0715 0b27 95c9 4d5e 25e9 9136  ]F[....'..M^%..6
	0x00d0:  893c 5376 5156 0762 3034 fddd cb35 1b48  .<SvQV.b04...5.H
	0x00e0:  3c9b 4b11 1e2a cfd6 6f5d 6cd7 7f26 c61b  <.K..*..o]l..&..
	0x00f0:  1792 6b0a d7b3 a8d6 6729 5f82 705d fa89  ..k.....g)_.p]..
	0x0100:  b066 15bf cbcc eba2 921e ac52 17c3 5afb  .f.........R..Z.
	0x0110:  8475 3483 82db b7e6 2774 6bb5 90e0 5c66  .u4.....'tk...\f
	0x0120:  e3fb 8e95 e05c 25af 8a09 9e2d 9e1c 4220  .....\%....-..B.
	0x0130:  1bed 59d3 8ba8 aca4 1b36 cd9e b718 46cf  ..Y......6....F.
	0x0140:  a774 60dd dc94 ca3e 89d8 95c5 067f fa1c  .t`....>........
	0x0150:  75a0 49cf b6ad 90f9 e4b8 37fe 4892 31ca  u.I.......7.H.1.
	0x0160:  8978 e2c6 595f bcda 9625 3df6 95d4 3baa  .x..Y_...%=...;.
	0x0170:  6a6c 4e10 804b 4dd1 90c1 ba6d 1ea4 1b7b  jlN..KM....m...{
	0x0180:  3bdb f998 d12b 9ae4 5478 c56b 29fd 2d1d  ;....+..Tx.k).-.
	0x0190:  cdaf c755 f05b a89b 5a67 e05c 8128 6515  ...U.[..Zg.\.(e.
	0x01a0:  a7cb a599 7ec3 cc41 53e3 c1b3 57e7 0015  ....~..AS...W...
	0x01b0:  b47c 8651 d540 d4                        .|.Q.@.
13:42:29.156280 IP 101.226.90.58.https > 192.168.1.4.59969: Flags [.], ack 672, win 62, options [nop,nop,TS val 594007529 ecr 410120628], length 0
	0x0000:  d0a6 37ed 4849 f49f f313 b1e8 0800 4500  ..7.HI........E.
	0x0010:  0034 7b6b 4000 3506 4890 65e2 5a3a c0a8  .4{k@.5.H.e.Z:..
	0x0020:  0104 01bb ea41 d784 bea9 ad92 60e0 8010  .....A......`...
	0x0030:  003e 60a1 0000 0101 080a 2367 d5e9 1871  .>`.......#g...q
	0x0040:  f1b4                                     ..
13:42:29.159566 IP 101.226.90.58.https > 192.168.1.4.59969: Flags [P.], seq 4063:4420, ack 672, win 62, options [nop,nop,TS val 594007529 ecr 410120628], length 357
	0x0000:  d0a6 37ed 4849 f49f f313 b1e8 0800 4500  ..7.HI........E.
	0x0010:  0199 7b6c 4000 3506 472a 65e2 5a3a c0a8  ..{l@.5.G*e.Z:..
	0x0020:  0104 01bb ea41 d784 bea9 ad92 60e0 8018  .....A......`...
	0x0030:  003e fb44 0000 0101 080a 2367 d5e9 1871  .>.D......#g...q
	0x0040:  f1b4 1703 0301 60be 8002 48b3 d335 b6a3  ......`...H..5..
	0x0050:  c2a0 cddf 5d1a 8fbb 1988 b613 2be6 04fb  ....].......+...
	0x0060:  39c4 28b5 1281 610d 890b a054 b0bc 30e6  9.(...a....T..0.
	0x0070:  c827 0117 8d88 6905 a4c5 d7ce 70e7 c52d  .'....i.....p..-
	0x0080:  d4a7 1cd6 0dca ce42 e286 e2c0 9773 a9be  .......B.....s..
	0x0090:  eadd 89ea dc89 d6d5 b127 e407 d457 c981  .........'...W..
	0x00a0:  e4c2 d034 2118 e194 bbd2 1f78 9fb7 701a  ...4!......x..p.
	0x00b0:  cd2c 2c87 2798 82cf c01c 7f8e 3482 063e  .,,.'.......4..>
	0x00c0:  2b79 57a2 549d 9014 059f fc87 05d6 bafd  +yW.T...........
	0x00d0:  eeb0 efc8 af77 e00b 0127 06a5 f16b d41e  .....w...'...k..
	0x00e0:  7be6 f1fb 6d1f 104e a5db cefe 243f b757  {...m..N....$?.W
	0x00f0:  51ac 6628 7974 46cc cb85 ba0f 2da3 9654  Q.f(ytF.....-..T
	0x0100:  b82c e94d 065e 1936 e11a 77a1 65cb b9e7  .,.M.^.6..w.e...
	0x0110:  53fb 38d7 ed53 2a67 04f6 c6d0 54c9 44ca  S.8..S*g....T.D.
	0x0120:  cd0a a7b8 b15a 2651 e282 d183 b2dd 045b  .....Z&Q.......[
	0x0130:  f397 2a56 b1a2 50d4 d99b 907b 9a5b 7980  ..*V..P....{.[y.
	0x0140:  eb86 e705 5220 0bb1 6563 7571 c670 d5d0  ....R...ecuq.p..
	0x0150:  2649 a3d4 4eaa a680 2fa9 3f65 2af7 8bdd  &I..N.../.?e*...
	0x0160:  fc29 9515 1a4e eed5 9bc4 9373 2ca8 2ed7  .)...N.....s,...
	0x0170:  9148 402c 9708 858e 7b0f 687b 6ba8 bd66  .H@,....{.h{k..f
	0x0180:  0e63 6762 66b7 fad1 754e c032 e259 8422  .cgbf...uN.2.Y."
	0x0190:  6cf3 7cf0 5f27 715d 8f6e 6cd8 0d47 92ff  l.|._'q].nl..G..
	0x01a0:  5756 67b5 982b 0a                        WVg..+.
13:42:29.159616 IP 192.168.1.4.59969 > 101.226.90.58.https: Flags [.], ack 4420, win 4084, options [nop,nop,TS val 410120727 ecr 594007529], length 0
	0x0000:  f49f f313 b1e8 d0a6 37ed 4849 0800 4500  ........7.HI..E.
	0x0010:  0034 8b3a 4000 4006 2dc1 c0a8 0104 65e2  .4.:@.@.-.....e.
	0x0020:  5a3a ea41 01bb ad92 60e0 d784 c00e 8010  Z:.A....`.......
	0x0030:  0ff4 4f23 0000 0101 080a 1871 f217 2367  ..O#.......q..#g
	0x0040:  d5e9                                     ..
13:42:29.160652 IP 192.168.1.4.59969 > 101.226.90.58.https: Flags [P.], seq 672:725, ack 4420, win 4096, options [nop,nop,TS val 410120728 ecr 594007529], length 53
	0x0000:  f49f f313 b1e8 d0a6 37ed 4849 0800 4500  ........7.HI..E.
	0x0010:  0069 ba69 4000 4006 fe5c c0a8 0104 65e2  .i.i@.@..\....e.
	0x0020:  5a3a ea41 01bb ad92 60e0 d784 c00e 8018  Z:.A....`.......
	0x0030:  1000 8dbb 0000 0101 080a 1871 f218 2367  ...........q..#g
	0x0040:  d5e9 1503 0300 30b0 afef 2d3d a519 1b22  ......0...-=..."
	0x0050:  af20 2d88 57c4 dbe8 f83c ee88 d79b b93b  ..-.W....<.....;
	0x0060:  a7ff 41da 8fad 80d9 4dab 8621 7ad8 896a  ..A.....M..!z..j
	0x0070:  f7e8 d8a1 5012 60                        ....P.`
13:42:29.160770 IP 192.168.1.4.59969 > 101.226.90.58.https: Flags [F.], seq 725, ack 4420, win 4096, options [nop,nop,TS val 410120728 ecr 594007529], length 0
	0x0000:  f49f f313 b1e8 d0a6 37ed 4849 0800 4500  ........7.HI..E.
	0x0010:  0034 9930 4000 4006 1fcb c0a8 0104 65e2  .4.0@.@.......e.
	0x0020:  5a3a ea41 01bb ad92 6115 d784 c00e 8011  Z:.A....a.......
	0x0030:  1000 4ee0 0000 0101 080a 1871 f218 2367  ..N........q..#g
	0x0040:  d5e9                                     ..
13:42:29.213513 IP 101.226.90.58.https > 192.168.1.4.59969: Flags [.], ack 725, win 62, options [nop,nop,TS val 594007543 ecr 410120728], length 0
	0x0000:  d0a6 37ed 4849 f49f f313 b1e8 0800 4500  ..7.HI........E.
	0x0010:  0034 7b6d 4000 3506 488e 65e2 5a3a c0a8  .4{m@.5.H.e.Z:..
	0x0020:  0104 01bb ea41 d784 c00e ad92 6115 8010  .....A......a...
	0x0030:  003e 5e95 0000 0101 080a 2367 d5f7 1871  .>^.......#g...q
	0x0040:  f218                                     ..
13:42:29.213517 IP 101.226.90.58.https > 192.168.1.4.59969: Flags [F.], seq 4420, ack 725, win 62, options [nop,nop,TS val 594007543 ecr 410120728], length 0
	0x0000:  d0a6 37ed 4849 f49f f313 b1e8 0800 4500  ..7.HI........E.
	0x0010:  0034 7b6e 4000 3506 488d 65e2 5a3a c0a8  .4{n@.5.H.e.Z:..
	0x0020:  0104 01bb ea41 d784 c00e ad92 6115 8011  .....A......a...
	0x0030:  003e 5e94 0000 0101 080a 2367 d5f7 1871  .>^.......#g...q
	0x0040:  f218                                     ..
13:42:29.213568 IP 192.168.1.4.59969 > 101.226.90.58.https: Flags [F.], seq 725, ack 4420, win 4096, options [nop,nop,TS val 410120780 ecr 594007543], length 0
	0x0000:  f49f f313 b1e8 d0a6 37ed 4849 0800 4500  ........7.HI..E.
	0x0010:  0034 c1de 4000 4006 f71c c0a8 0104 65e2  .4..@.@.......e.
	0x0020:  5a3a ea41 01bb ad92 6115 d784 c00e 8011  Z:.A....a.......
	0x0030:  1000 4e9e 0000 0101 080a 1871 f24c 2367  ..N........q.L#g
	0x0040:  d5f7                                     ..
13:42:29.213584 IP 192.168.1.4.59969 > 101.226.90.58.https: Flags [F.], seq 725, ack 4421, win 4096, options [nop,nop,TS val 410120780 ecr 594007543], length 0
	0x0000:  f49f f313 b1e8 d0a6 37ed 4849 0800 4500  ........7.HI..E.
	0x0010:  0034 7900 4000 4006 3ffb c0a8 0104 65e2  .4y.@.@.?.....e.
	0x0020:  5a3a ea41 01bb ad92 6115 d784 c00f 8011  Z:.A....a.......
	0x0030:  1000 4e9d 0000 0101 080a 1871 f24c 2367  ..N........q.L#g
	0x0040:  d5f7                                     ..
13:42:29.215206 IP 101.226.90.58.https > 192.168.1.4.59969: Flags [.], ack 726, win 62, options [nop,nop,TS val 594007543 ecr 410120728], length 0
	0x0000:  d0a6 37ed 4849 f49f f313 b1e8 0800 4500  ..7.HI........E.
	0x0010:  0034 7b6f 4000 3506 488c 65e2 5a3a c0a8  .4{o@.5.H.e.Z:..
	0x0020:  0104 01bb ea41 d784 c00f ad92 6116 8010  .....A......a...
	0x0030:  003e 5e93 0000 0101 080a 2367 d5f7 1871  .>^.......#g...q
	0x0040:  f218                                     ..
13:42:29.215243 IP 192.168.1.4.59969 > 101.226.90.58.https: Flags [.], ack 4421, win 4096, options [nop,nop,TS val 410120781 ecr 594007543], length 0
	0x0000:  f49f f313 b1e8 d0a6 37ed 4849 0800 4500  ........7.HI..E.
	0x0010:  0034 34d3 4000 4006 8428 c0a8 0104 65e2  .44.@.@..(....e.
	0x0020:  5a3a ea41 01bb ad92 6116 d784 c00f 8010  Z:.A....a.......
	0x0030:  1000 4e9c 0000 0101 080a 1871 f24d 2367  ..N........q.M#g
	0x0040:  d5f7                                     ..
13:42:29.265451 IP 101.226.90.58.https > 192.168.1.4.59969: Flags [.], ack 726, win 62, options [nop,nop,TS val 594007556 ecr 410120780,nop,nop,sack 1 {725:726}], length 0
	0x0000:  d0a6 37ed 4849 f49f f313 b1e8 0800 4500  ..7.HI........E.
	0x0010:  0040 7b70 4000 3506 487f 65e2 5a3a c0a8  .@{p@.5.H.e.Z:..
	0x0020:  0104 01bb ea41 d784 c00f ad92 6116 b010  .....A......a...
	0x0030:  003e 0aea 0000 0101 080a 2367 d604 1871  .>........#g...q
	0x0040:  f24c 0101 050a ad92 6115 ad92 6116       .L......a...a.

